{
    "contractName": "Sablier",
    "abi": [
        {
            "inputs": [],
            "payable": false,
            "stateMutability": "nonpayable",
            "type": "constructor"
        },
        {
            "anonymous": false,
            "inputs": [
                {
                    "indexed": true,
                    "internalType": "uint256",
                    "name": "streamId",
                    "type": "uint256"
                },
                {
                    "indexed": true,
                    "internalType": "address",
                    "name": "sender",
                    "type": "address"
                },
                {
                    "indexed": true,
                    "internalType": "address",
                    "name": "recipient",
                    "type": "address"
                },
                {
                    "indexed": false,
                    "internalType": "uint256",
                    "name": "senderBalance",
                    "type": "uint256"
                },
                {
                    "indexed": false,
                    "internalType": "uint256",
                    "name": "recipientBalance",
                    "type": "uint256"
                }
            ],
            "name": "CancelStream",
            "type": "event"
        },
        {
            "anonymous": false,
            "inputs": [
                {
                    "indexed": true,
                    "internalType": "uint256",
                    "name": "streamId",
                    "type": "uint256"
                },
                {
                    "indexed": true,
                    "internalType": "address",
                    "name": "sender",
                    "type": "address"
                },
                {
                    "indexed": true,
                    "internalType": "address",
                    "name": "recipient",
                    "type": "address"
                },
                {
                    "indexed": false,
                    "internalType": "uint256",
                    "name": "deposit",
                    "type": "uint256"
                },
                {
                    "indexed": false,
                    "internalType": "address",
                    "name": "tokenAddress",
                    "type": "address"
                },
                {
                    "indexed": false,
                    "internalType": "uint256",
                    "name": "startTime",
                    "type": "uint256"
                },
                {
                    "indexed": false,
                    "internalType": "uint256",
                    "name": "stopTime",
                    "type": "uint256"
                }
            ],
            "name": "CreateStream",
            "type": "event"
        },
        {
            "anonymous": false,
            "inputs": [
                {
                    "indexed": true,
                    "internalType": "uint256",
                    "name": "streamId",
                    "type": "uint256"
                },
                {
                    "indexed": true,
                    "internalType": "address",
                    "name": "recipient",
                    "type": "address"
                },
                {
                    "indexed": false,
                    "internalType": "uint256",
                    "name": "amount",
                    "type": "uint256"
                }
            ],
            "name": "WithdrawFromStream",
            "type": "event"
        },
        {
            "constant": true,
            "inputs": [
                {
                    "internalType": "uint256",
                    "name": "streamId",
                    "type": "uint256"
                },
                {
                    "internalType": "address",
                    "name": "who",
                    "type": "address"
                }
            ],
            "name": "balanceOf",
            "outputs": [
                {
                    "internalType": "uint256",
                    "name": "balance",
                    "type": "uint256"
                }
            ],
            "payable": false,
            "stateMutability": "view",
            "type": "function"
        },
        {
            "constant": false,
            "inputs": [
                {
                    "internalType": "uint256",
                    "name": "streamId",
                    "type": "uint256"
                }
            ],
            "name": "cancelStream",
            "outputs": [
                {
                    "internalType": "bool",
                    "name": "",
                    "type": "bool"
                }
            ],
            "payable": false,
            "stateMutability": "nonpayable",
            "type": "function"
        },
        {
            "constant": false,
            "inputs": [
                {
                    "internalType": "address",
                    "name": "recipient",
                    "type": "address"
                },
                {
                    "internalType": "uint256",
                    "name": "deposit",
                    "type": "uint256"
                },
                {
                    "internalType": "address",
                    "name": "tokenAddress",
                    "type": "address"
                },
                {
                    "internalType": "uint256",
                    "name": "startTime",
                    "type": "uint256"
                },
                {
                    "internalType": "uint256",
                    "name": "stopTime",
                    "type": "uint256"
                }
            ],
            "name": "createStream",
            "outputs": [
                {
                    "internalType": "uint256",
                    "name": "",
                    "type": "uint256"
                }
            ],
            "payable": false,
            "stateMutability": "nonpayable",
            "type": "function"
        },
        {
            "constant": true,
            "inputs": [
                {
                    "internalType": "uint256",
                    "name": "streamId",
                    "type": "uint256"
                }
            ],
            "name": "deltaOf",
            "outputs": [
                {
                    "internalType": "uint256",
                    "name": "delta",
                    "type": "uint256"
                }
            ],
            "payable": false,
            "stateMutability": "view",
            "type": "function"
        },
        {
            "constant": true,
            "inputs": [
                {
                    "internalType": "uint256",
                    "name": "streamId",
                    "type": "uint256"
                }
            ],
            "name": "getStream",
            "outputs": [
                {
                    "internalType": "address",
                    "name": "sender",
                    "type": "address"
                },
                {
                    "internalType": "address",
                    "name": "recipient",
                    "type": "address"
                },
                {
                    "internalType": "uint256",
                    "name": "deposit",
                    "type": "uint256"
                },
                {
                    "internalType": "address",
                    "name": "tokenAddress",
                    "type": "address"
                },
                {
                    "internalType": "uint256",
                    "name": "startTime",
                    "type": "uint256"
                },
                {
                    "internalType": "uint256",
                    "name": "stopTime",
                    "type": "uint256"
                },
                {
                    "internalType": "uint256",
                    "name": "remainingBalance",
                    "type": "uint256"
                },
                {
                    "internalType": "uint256",
                    "name": "ratePerSecond",
                    "type": "uint256"
                }
            ],
            "payable": false,
            "stateMutability": "view",
            "type": "function"
        },
        {
            "constant": true,
            "inputs": [],
            "name": "nextStreamId",
            "outputs": [
                {
                    "internalType": "uint256",
                    "name": "",
                    "type": "uint256"
                }
            ],
            "payable": false,
            "stateMutability": "view",
            "type": "function"
        },
        {
            "constant": false,
            "inputs": [
                {
                    "internalType": "uint256",
                    "name": "streamId",
                    "type": "uint256"
                },
                {
                    "internalType": "uint256",
                    "name": "amount",
                    "type": "uint256"
                }
            ],
            "name": "withdrawFromStream",
            "outputs": [
                {
                    "internalType": "bool",
                    "name": "",
                    "type": "bool"
                }
            ],
            "payable": false,
            "stateMutability": "nonpayable",
            "type": "function"
        }
    ],
    "bytecode": "608060405234801561001057600080fd5b5060016000819055620186a0905561180e8061002d6000396000f3fe608060405234801561001057600080fd5b506004361061007d5760003560e01c80637a9b2c6c1161005b5780637a9b2c6c146100f9578063894e9a0d1461011c578063a82ccd4d1461018c578063cc1b4bf6146101a95761007d565b80631e99d569146100825780633656eec21461009c5780636db9241b146100c8575b600080fd5b61008a6101e9565b60408051918252519081900360200190f35b61008a600480360360408110156100b257600080fd5b50803590602001356001600160a01b03166101ef565b6100e5600480360360208110156100de57600080fd5b50356104d4565b604080519115158252519081900360200190f35b6100e56004803603604081101561010f57600080fd5b50803590602001356107e8565b6101396004803603602081101561013257600080fd5b5035610b79565b604080516001600160a01b03998a168152978916602089015287810196909652939096166060860152608085019190915260a084015260c083019390935260e08201929092529051908190036101000190f35b61008a600480360360208110156101a257600080fd5b5035610c4d565b61008a600480360360a08110156101bf57600080fd5b506001600160a01b0381358116916020810135916040820135169060608101359060800135610d87565b60015481565b6000828152600260205260408120600701548390600160a01b900460ff16610256576040805162461bcd60e51b81526020600482015260156024820152741cdd1c99585b48191bd95cc81b9bdd08195e1a5cdd605a1b604482015290519081900360640190fd5b61025e61163a565b50600084815260026020818152604092839020835161012081018552815481526001820154928101929092529182015492810192909252600381015460608301526004810154608083015260058101546001600160a01b0390811660a08401526006820154811660c084015260079091015490811660e0830152600160a01b900460ff1615156101008201526102f26116a3565b60006102fd87610c4d565b905061030d81846020015161130f565b602084018190528382600381111561032157fe5b600381111561032c57fe5b905250600090508251600381111561034057fe5b1461037c5760405162461bcd60e51b81526004018080602001828103825260238152602001806117566023913960400191505060405180910390fd5b6040830151835111156104215761039b83600001518460400151611351565b60408401819052838260038111156103af57fe5b60038111156103ba57fe5b90525060009050825160038111156103ce57fe5b146103d557fe5b6103e782602001518360400151611351565b60208401819052838260038111156103fb57fe5b600381111561040657fe5b905250600090508251600381111561041a57fe5b1461042157fe5b8260a001516001600160a01b0316866001600160a01b0316141561044d57506020015192506104cd9050565b8260c001516001600160a01b0316866001600160a01b031614156104c55761047d83604001518360200151611351565b606084018190528382600381111561049157fe5b600381111561049c57fe5b90525060009050825160038111156104b057fe5b146104b757fe5b506060015192506104cd9050565b600094505050505b5092915050565b60008054600101808255828252600260205260408220600701548390600160a01b900460ff16610543576040805162461bcd60e51b81526020600482015260156024820152741cdd1c99585b48191bd95cc81b9bdd08195e1a5cdd605a1b604482015290519081900360640190fd5b60008481526002602052604090206006015484906001600160a01b031633148061058657506000818152600260205260409020600501546001600160a01b031633145b6105c15760405162461bcd60e51b81526004018080602001828103825260378152602001806117796037913960400191505060405180910390fd5b6105c961163a565b506000858152600260208181526040808420815161012081018352815481526001820154938101939093529283015490820152600382015460608201526004820154608082015260058201546001600160a01b0390811660a08301526006830154811660c0830181905260079093015490811660e0830152600160a01b900460ff16151561010082015291906106609088906101ef565b90506000610672888460a001516101ef565b60008981526002602081905260408220828155600181018390559081018290556003810182905560048101919091556005810180546001600160a01b0319908116909155600682018054909116905560070180546001600160a81b031916905560e084015190915081156107005760a0840151610700906001600160a01b038316908463ffffffff61137416565b82156107265760c0840151610726906001600160a01b038316908563ffffffff61137416565b8360a001516001600160a01b03168460c001516001600160a01b03168a7fca3e6079b726e7728802a0537949e2d1c7762304fa641fb06eb56daf2ba8c6b98686604051808381526020018281526020019250505060405180910390a46001975050505050505060005481146107e2576040805162461bcd60e51b815260206004820152601f60248201527f5265656e7472616e637947756172643a207265656e7472616e742063616c6c00604482015290519081900360640190fd5b50919050565b60008054600101808255838252600260205260408220600701548490600160a01b900460ff16610857576040805162461bcd60e51b81526020600482015260156024820152741cdd1c99585b48191bd95cc81b9bdd08195e1a5cdd605a1b604482015290519081900360640190fd5b60008581526002602052604090206006015485906001600160a01b031633148061089a57506000818152600260205260409020600501546001600160a01b031633145b6108d55760405162461bcd60e51b81526004018080602001828103825260378152602001806117796037913960400191505060405180910390fd5b6000851161091b576040805162461bcd60e51b815260206004820152600e60248201526d616d6f756e74206973207a65726f60901b604482015290519081900360640190fd5b61092361163a565b506000868152600260208181526040808420815161012081018352815481526001820154938101939093529283015490820152600382015460608201526004820154608082015260058201546001600160a01b0390811660a083018190526006840154821660c084015260079093015490811660e0830152600160a01b900460ff16151561010082015291906109ba9089906101ef565b9050868110156109fb5760405162461bcd60e51b81526004018080602001828103825260248152602001806116ef6024913960400191505060405180910390fd5b6000610a0b836040015189611351565b60008b815260026020819052604082200191909155909150816003811115610a2f57fe5b14610a3657fe5b60008981526002602081905260409091200154610aae5760008981526002602081905260408220828155600181018390559081018290556003810182905560048101919091556005810180546001600160a01b0319908116909155600682018054909116905560070180546001600160a81b03191690555b610ad48360a00151898560e001516001600160a01b03166113749092919063ffffffff16565b8260a001516001600160a01b0316897f36c3ab437e6a424ed25dc4bfdeb62706aa06558660fab2dab229d2555adaf89c8a6040518082815260200191505060405180910390a360019650505050505060005481146104cd576040805162461bcd60e51b815260206004820152601f60248201527f5265656e7472616e637947756172643a207265656e7472616e742063616c6c00604482015290519081900360640190fd5b600080600080600080600080886002600082815260200190815260200160002060070160149054906101000a900460ff16610bf3576040805162461bcd60e51b81526020600482015260156024820152741cdd1c99585b48191bd95cc81b9bdd08195e1a5cdd605a1b604482015290519081900360640190fd5b505050600096875250506002602081905260409095206006810154600582015482546007840154600385015460048601549a8601546001909601546001600160a01b039586169c9486169b939a5094909116975095509350565b6000818152600260205260408120600701548290600160a01b900460ff16610cb4576040805162461bcd60e51b81526020600482015260156024820152741cdd1c99585b48191bd95cc81b9bdd08195e1a5cdd605a1b604482015290519081900360640190fd5b610cbc61163a565b506000838152600260208181526040928390208351610120810185528154815260018201549281019290925291820154928101929092526003810154606083018190526004820154608084015260058201546001600160a01b0390811660a08501526006830154811660c085015260079092015491821660e0840152600160a01b90910460ff1615156101008301524211610d5b5760009250506107e2565b8060800151421015610d745760600151420391506107e2565b6060810151608090910151039392505050565b60006001600160a01b038616610de4576040805162461bcd60e51b815260206004820152601a60248201527f73747265616d20746f20746865207a65726f2061646472657373000000000000604482015290519081900360640190fd5b6001600160a01b038616301415610e42576040805162461bcd60e51b815260206004820152601d60248201527f73747265616d20746f2074686520636f6e747261637420697473656c66000000604482015290519081900360640190fd5b6001600160a01b038616331415610e97576040805162461bcd60e51b815260206004820152601460248201527339ba3932b0b6903a37903a34329031b0b63632b960611b604482015290519081900360640190fd5b60008511610ede576040805162461bcd60e51b815260206004820152600f60248201526e6465706f736974206973207a65726f60881b604482015290519081900360640190fd5b42831015610f1d5760405162461bcd60e51b81526004018080602001828103825260218152602001806117136021913960400191505060405180910390fd5b828211610f71576040805162461bcd60e51b815260206004820152601f60248201527f73746f702074696d65206265666f7265207468652073746172742074696d6500604482015290519081900360640190fd5b610f796116cc565b610f838385611351565b6020830181905282826003811115610f9757fe5b6003811115610fa257fe5b9052506000905081516003811115610fb657fe5b14610fbd57fe5b8060200151861015611016576040805162461bcd60e51b815260206004820152601f60248201527f6465706f73697420736d616c6c6572207468616e2074696d652064656c746100604482015290519081900360640190fd5b8060200151868161102357fe5b06156110605760405162461bcd60e51b81526004018080602001828103825260228152602001806117346022913960400191505060405180910390fd5b61106e8682602001516113cb565b604083018190528282600381111561108257fe5b600381111561108d57fe5b90525060009050815160038111156110a157fe5b146110a857fe5b6000600154905060405180610120016040528088815260200183604001518152602001888152602001868152602001858152602001896001600160a01b03168152602001336001600160a01b03168152602001876001600160a01b031681526020016001151581525060026000838152602001908152602001600020600082015181600001556020820151816001015560408201518160020155606082015181600301556080820151816004015560a08201518160050160006101000a8154816001600160a01b0302191690836001600160a01b0316021790555060c08201518160060160006101000a8154816001600160a01b0302191690836001600160a01b0316021790555060e08201518160070160006101000a8154816001600160a01b0302191690836001600160a01b031602179055506101008201518160070160146101000a81548160ff02191690831515021790555090505061120e60015460016113f6565b60018190558382600381111561122057fe5b600381111561122b57fe5b905250600090508251600381111561123f57fe5b14611291576040805162461bcd60e51b815260206004820181905260248201527f6e6578742073747265616d2069642063616c63756c6174696f6e206572726f72604482015290519081900360640190fd5b6112ac6001600160a01b03871633308a63ffffffff61141c16565b604080518881526001600160a01b038881166020830152818301889052606082018790529151918a1691339184917f7b01d409597969366dc268d7f957a990d1ca3d3449baf8fb45db67351aecfe789181900360800190a4979650505050505050565b600080836113225750600090508061134a565b8383028385828161132f57fe5b04146113435750600291506000905061134a565b6000925090505b9250929050565b60008083831161136857506000905081830361134a565b5060039050600061134a565b604080516001600160a01b038416602482015260448082018490528251808303909101815260649091019091526020810180516001600160e01b031663a9059cbb60e01b1790526113c690849061147c565b505050565b600080826113df575060019050600061134a565b60008385816113ea57fe5b04915091509250929050565b60008083830184811061140e5760009250905061134a565b50600291506000905061134a565b604080516001600160a01b0385811660248301528416604482015260648082018490528251808303909101815260849091019091526020810180516001600160e01b03166323b872dd60e01b17905261147690859061147c565b50505050565b61148e826001600160a01b0316611634565b6114df576040805162461bcd60e51b815260206004820152601f60248201527f5361666545524332303a2063616c6c20746f206e6f6e2d636f6e747261637400604482015290519081900360640190fd5b60006060836001600160a01b0316836040518082805190602001908083835b6020831061151d5780518252601f1990920191602091820191016114fe565b6001836020036101000a0380198251168184511680821785525050505050509050019150506000604051808303816000865af19150503d806000811461157f576040519150601f19603f3d011682016040523d82523d6000602084013e611584565b606091505b5091509150816115db576040805162461bcd60e51b815260206004820181905260248201527f5361666545524332303a206c6f772d6c6576656c2063616c6c206661696c6564604482015290519081900360640190fd5b805115611476578080602001905160208110156115f757600080fd5b50516114765760405162461bcd60e51b815260040180806020018281038252602a8152602001806117b0602a913960400191505060405180910390fd5b3b151590565b604051806101200160405280600081526020016000815260200160008152602001600081526020016000815260200160006001600160a01b0316815260200160006001600160a01b0316815260200160006001600160a01b031681526020016000151581525090565b604080516080810190915280600081526020016000815260200160008152602001600081525090565b604080516060810190915280600081526020016000815260200160008152509056fe616d6f756e7420657863656564732074686520617661696c61626c652062616c616e636573746172742074696d65206265666f726520626c6f636b2e74696d657374616d706465706f736974206e6f74206d756c7469706c65206f662074696d652064656c7461726563697069656e742062616c616e63652063616c63756c6174696f6e206572726f7263616c6c6572206973206e6f74207468652073656e646572206f722074686520726563697069656e74206f66207468652073747265616d5361666545524332303a204552433230206f7065726174696f6e20646964206e6f742073756363656564a265627a7a72315820a58f9f1d35ae071fa8ab16d18714617529848c6c215072784813d3f36851a27d64736f6c63430005110032",
    "sourcePath": "/Users/paulrberg/projects/sablier/v1-protocol-rescue/packages/protocol/contracts/Sablier.sol",
    "compiler": {
        "name": "solc",
        "version": "0.5.17+commit.d19bba13"
    },
    "functionHashes": {
        "balanceOf(uint256,address)": "3656eec2",
        "cancelStream(uint256)": "6db9241b",
        "createStream(address,uint256,address,uint256,uint256)": "cc1b4bf6",
        "deltaOf(uint256)": "a82ccd4d",
        "getStream(uint256)": "894e9a0d",
        "nextStreamId()": "1e99d569",
        "withdrawFromStream(uint256,uint256)": "7a9b2c6c"
    },
    "gasEstimates": {
        "creation": {
            "codeDepositCost": "1231600",
            "executionCost": "41299",
            "totalCost": "1272899"
        },
        "external": {
            "balanceOf(uint256,address)": "infinite",
            "cancelStream(uint256)": "infinite",
            "createStream(address,uint256,address,uint256,uint256)": "infinite",
            "deltaOf(uint256)": "8358",
            "getStream(uint256)": "8087",
            "nextStreamId()": "999",
            "withdrawFromStream(uint256,uint256)": "infinite"
        }
    }
}